S0100000386120636865636B2E737265635D
S113000012C024C023C022C021C020C01FC01EC0F3
S11300101DC01CC01BC01AC019C018C017C016C010
S113002015C014C013C011241FBECFE5D4E0DEBF39
S1130030CDBF10E0A0E6B0E0EAE5F1E002C0059033
S11300400D92A037B107D9F769D085C0D9CF1F93D6
S1130050CF93DF93FC0181E090E040E050E010E4B6
S1130060D0E2C0E1B8E0A4E072E061E003C04F5F19
S11300705F4F01962081329628BB4115510511F43A
S113008062BB3DC04130510511F472BB38C04230EF
S1130090510511F4A2BB33C04330510511F4B2BB76
S11300A02EC04430510511F4C2BB29C0453051055E
S11300B011F4D2BB24C04630510511F412BB1FC049
S11300C04730510569F480E882BB26EA2A95F1F7A6
S11300D000C018BA12BA86EA8A95F1F700C01AC0AD
S11300E026EA2A95F1F700C018BA12BA26EA2A9528
S11300F0F1F700C0883091050CF4B9CF0BC026EAA3
S11301002A95F1F700C018BA12BA26EA2A95F1F72F
S113011000C0ADCFDF91CF911F910895CF93DF93AE
S1130120CDB7DEB760970FB6F894DEBF0FBECDBF74
S113013087B38FEF87BB91B381BB10E1E0E6F0E0BA
S1130140DE011196812F01900D928A95E1F7CE017F
S10D015001967DDFF3CFF894FFCF92
S113015AFF00C300A50099009900A500C300FF0091
S9030000FC
