:100000000C942A000C9434000C9434000C943400AA
:100010000C9434000C9434000C9434000C94340090
:100020000C9434000C9434000C9434000C94340080
:100030000C9434000C9434000C9434000C94340070
:100040000C9434000C9434000C9434000C94340060
:100050000C94340011241FBECFE5D8E0DEBFCDBF25
:100060000E9444000C944E000C94000088E287BB70
:1000700081E58DB9089580E487BB8DB908958FB966
:10008000779BFECF8FB10895B89AC09A0E94360030
:100090000E943B008FEF0E943F00FFCFF894FFCFFC
:00000001FF
