:100000000C942A000C9434000C9434000C943400AA
:100010000C9434000C9434000C9434000C94340090
:100020000C9434000C9434000C9434000C94340080
:100030000C9434000C9434000C9434000C94340070
:100040000C9434000C9434000C9434000C94340060
:100050000C94340011241FBECFE5D8E0DEBFCDBF25
:100060000E9441000C944E000C94000080EB87BB72
:1000700080E58DB90895C1988FB9779BFECFC19A5D
:10008000089587B3876087BB0E943600C29AC298E2
:1000900080EF0E943B00C29AC39AF8CFF894FFCF3A
:00000001FF
