S0100000333261746D6567612E7372656340
S11300000C942A000C9434000C9434000C943400A6
S11300100C9434000C9434000C9434000C9434008C
S11300200C9434000C9434000C9434000C9434007C
S11300300C9434000C9434000C9434000C9434006C
S11300400C9434000C9434000C9434000C9434005C
S11300500C94340011241FBECFE5D8E0DEBFCDBF21
S11300600E943F000C9444000C94000088E287BB7B
S113007081E58DB9089580E487BB8DB908950E9408
S10F008036000E943B00FFCFF894FFCF35
S9030000FC
