:100000000C9432000C9444000C9444000C94440072
:100010000C9444000C9444000C9444000C94440050
:100020000C9444000C9444000C9444000C94440040
:100030000C9444000C9444000C9444000C94440030
:100040000C9444000C9444000C9444000C94440020
:100050000C9444000066661818003C42006666185E
:100060001881423C11241FBECFE5D8E0DEBFCDBFD2
:1000700020E0A0E6B0E001C01D92A836B207E1F78B
:100080000E94AB000C94F7000C94000098E0C2981A
:10009000882314F4C09A01C0C098C29A880F915066
:1000A000B1F70895CF93C62FC1980E9446008C2FB8
:1000B0000E944600C19ACF910895CF93C0E0CF5FD0
:1000C00060E08C2F0E945200C830C9F7CF9108958C
:1000D00087B3876087BB60E089E00E94520061E0DF
:1000E0008AE00E94520067E08BE00E94520061E0CB
:1000F0008CE00E94520060E08FE00E9452000E945B
:100100005D000895EF92FF920F931F93CF93DF93BB
:100110000F2EF0E6EF2EF0E0FF2EF02D08E610E0B7
:10012000E70169918C2F8E190E945200C017D107E8
:10013000C1F7DF91CF911F910F91FF90EF9008953C
:10014000FC01A0E6B0E088E690E025912D93A81789
:10015000B907D9F708950E94680000E0C0E8D0E030
:1001600084E590E00E94A0000E9482002FE936E81A
:1001700081E0215030408040E1F700C000008CE574
:1001800090E00E94A0000E9482009FE926E831E0F2
:10019000915020403040E1F700C00000102FE12FC7
:1001A000E695E695E695F0E0E05AFF4F812F8770DF
:1001B0009E0102C0359527958A95E2F7C901908185
:1001C000892780830E94820083EC99E00197F1F7F0
:1001D00000C000001F5F103411F79FE926E831E0EE
:1001E000915020403040E1F700C00000B9CFF894B2
:0201F000FFCF3F
:00000001FF
